:040000000C94003A22
:10740000CDB7DEB72797DEBFCDBF11248FEF98E051
:107410009EBF8DBF84B714BE982F9D7009F057D2C0
:107420009091F200937F946080E88093F2009093B3
:10743000F20000000000000000000000000000005A
:10744000000000000000000000000000000000003C
:10745000000000000000000000009091F2009F7901
:1074600090628093F2009093F200809361001092FA
:1074700061009091F20090618093F2009093F2008D
:1074800086BF8CE486BF85E08093810088E180938D
:10749000C10096E09093C20090E19093C400809365
:1074A00060008DE080936000259A86E040E35CEF09
:1074B00031E020E2509385004093840036BBB09BBE
:1074C000FECF95B1922795B9A895815099F71F8263
:1074D0001E821A821B821C821D8248E1242E5CE0DF
:1074E000452EFF24F39462E0E62E73E0572EE4EA83
:1074F0006E2EF2EA7F2EA4E03A2E18C0823421F1DB
:10750000853439F1853509F433C0863549F184363F
:1075100009F4A8C0843709F440C0853709F494C041
:10752000813509F434C0C1D180E1A7D1ADD1813416
:1075300029F7AAD1182FB9D11238B9F0113809F4A6
:1075400080C083E09AD1F0CF14E19ED11150E9F7C9
:10755000EACF9AD199D198D197D196D1A6D1E4CF3B
:1075600093D192D191D190D1A0D180E086D1DCCFBE
:107570008BD1282F30E03F832E8386D14E815F81CF
:10758000582B440F551F5F834E838FD1CDCF209250
:1075900060004092600089D1C7CF76D1082F10E0FB
:1075A000102F002771D1080F111D6ED1D82E7DD15B
:1075B000F5E4DF1609F4EAC08E819F81080F191FD8
:1075C00011C080918401909185012E813F812F5FB0
:1075D0003F4F3F832E8351D14E815F81401751072A
:1075E00009F4A2CFEE81FF81EF2B59F32E813F8169
:1075F0002130310589F14E815F814230510509F416
:10760000C0C06E817F816330710509F4D8C08E815E
:107610009F81489709F4FAC0EE81FF81799709F4B8
:10762000FAC02E813F812A31310509F41BC14E81F8
:107630005F814B31510509F41AC1EE81FF818491BC
:10764000C4CF85E01AD170CF30D18EE116D185E953
:1076500014D18FE012D168CF80918401909185017F
:10766000892FB3CF11D1882E912C982C88240CD13E
:10767000880E911C09D189836401D394A12CBB2469
:10768000B39485010F5F1F4FFFD0F5018083580130
:107690000C151D05B1F711BCFF81F2BD82B58695B1
:1076A00086954A815B816C817D81082E04C0769528
:1076B0006795579547950A94D2F740FD04C02981F4
:1076C000263409F4AEC0F1D05981553409F47DC097
:1076D0008E819F81892BE1F540910101509100013C
:1076E000942F852F9093850180938401209103012D
:1076F00030910201922F832F90938701809386010E
:1077000080911901909118018927982789279093D2
:1077100089018093880180911B0190911A0189272A
:107720009827892790938B0180938A0150931801A1
:107730004093190130931A0120931B0140920001DC
:1077400094E99093010110920201EAE3E0930301AE
:107750008E81282F2058E0E0F1E011BC908190BD8F
:10776000F1BC918190BDE1BC928190BD51BC9381EF
:1077700090BD81BD6FBA7FBA34968C5F2813EDCF70
:10778000D3CE80918601909187011FCFDE802E811C
:107790003F81020F131F4E815F814F5F5F4F5F83F9
:1077A0004E83D1BC52BDFFBA0000000080B565D049
:1077B000D3946E817F816017710769F7B5CE809190
:1077C000860190918701892F00CF8114910409F4DB
:1077D000ABCE4E816E817F81860E971ECB019C01C0
:1077E0002F5F3F4F41BD32BD9395FC016E817F817C
:1077F000E61BF70B808180BD3FBAEFBA4F5FC9012E
:107800002815390561F73F832E838ECE809188013C
:1078100090918901DACE8091880190918901892F18
:10782000D4CE41E050E060E070E004C0440F551F4A
:10783000661F771F8A95D2F7DB01CA012A813B8137
:107840004C815D81282B392B462B5B2B2A833B8374
:107850004C835D8334E93FBB42E94FBB000000002D
:1078600024D036CF80918A0190918B01AECE809149
:107870008A0190918B01892FA8CE9091C00095FF2D
:10788000FCCF8093C60008958091C00087FFFCCF95
:107890008091C00084FD01C0A8958091C600089524
:1078A0009AE29A95F1F708950895EEDF803239F063
:1078B00088E1809360008DE080936000FFCF84E1D9
:1078C000DCCFE0E6F0E098E1908380830895E0E685
:1078D000F0E098E190831082282EECE0FF270994D5
:0277FE00000584
:040000030000740085
:00000001FF
